:020000040800F2
:10000000180B0020010100085B2C00084D27000898
:10001000592C0008C9090008F13900080000000047
:100020000000000000000000000000003D3100085A
:100030003D0B000800000000693000087131000825
:100040001B0100081B0100081B0100081B01000820
:100050001B0100081B0100081B0100081B01000810
:100060001B0100081B0100081B0100081B01000800
:100070001B0100081B0100081B0100081B010008F0
:100080001B0100081B0100081B0100081B010008E0
:100090001B0100081B0100081B010008550B00088C
:1000A0001B010008F13100081B0100081B010008BA
:1000B0001B0100081B0100081B0100081B010008B0
:1000C0001B0100081B0100081B0100081B010008A0
:1000D0001B0100081B0100081B0100081B01000890
:1000E0003F0B00081B0100081B010008DFF80CD0C3
:1000F00000F09AFB004800474D3D0008180B002017
:100100000648804706480047FEE7FEE7FEE7FEE7B1
:10011000FEE7FEE7FEE7FEE7FEE7FEE7ED3100085B
:10012000ED000008202A04DB203A21FA02F0002129
:10013000704721FA02F3D040C2F1200291400843F7
:1001400019467047D2B201E000F8012B491EFBD2DC
:1001500070470022F6E710B513460A4604461946D2
:10016000FFF7F0FF204610BDF0B480EA0102D40F83
:100170004200B2EB410F02D20246084611464A0045
:1001800042D0C30DDDB2C1F3C752AD1A202D35DA0E
:10019000C1F3160141F4000204B15242C5F1200638
:1001A00002FA06F12A411044B3EBD05F23D0C4B168
:1001B000012DA0EBC35009DCF0BC4FF0004202EA75
:1001C000C352DBB200F5000000F0A3BA400000F11A
:1001D000807000EBC350A0F1807040EAD1704900FC
:1001E00009E0490841EAC071A0EBC35000F50000E6
:1001F000400800EBC350F0BC00F082BA614201221B
:1002000002EB4101001BF6E7F0BC704781F00041B2
:10021000AAE780F00040A7E780EA010210B502F0EB
:100220000043400022D04A001FD0010E01EB1261B2
:10023000C0F35600C2F3560240F4000042F400023C
:10024000A0FB022000047F39140400D0401C50EAB7
:10025000124001D44000491EC2B20C0604EBD0107B
:10026000401C4008802A02D003E0002010BD20F08E
:100270000100002900DA0020184310BD30B480EAE4
:10028000010202F0004530F0004221F0004013D09E
:1002900090B1C30DD40DC2F31601C0F31600E41AD9
:1002A00041F4000140F400027D34914201D3641C0A
:1002B00000E04900002C02DA30BC002070474FF407
:1002C00000000023914201D3891A034340084FEAFA
:1002D0004101F7D151B1914202D14FF0004105E007
:1002E00002D24FF0010101E06FF0010103EBC450B5
:1002F000284430BC00F004BA420005D0C0F3C75215
:100300005242914201DC0020704700EBC15070471F
:100310002DE9FE4F804681EA0300C00F0C46009095
:1003200021F0004123F00045B8EB0200A94105D2BD
:100330004046214690461C460B46024623F00040AC
:10034000104347D0270DC7F30A00C3F30A510290A8
:10035000401A019040286BDAC3F3130040F4801B6D
:100360000098924620B10023D2EB030A63EB0B0BFB
:1003700001985946C0F14002504600F0A0F90646E7
:100380000D4650465946019A00F0A8F910EB0800B6
:100390006141002487EA115284EAE7731A4340D08E
:1003A000009A62B3019A012A4FEA075215DC001B3A
:1003B00061EB02014FF0004202EA0752CDE9004230
:1003C000001C41F5801132462B4600F0DFF903B0E6
:1003D000BDE8F08F40462146F9E7001B61EB0201C2
:1003E000001C41F5801300185B412018A2F500178E
:1003F00047EB030140EAD570B6196D4111E06D0875
:100400004FEA360645EAC0754FEA0752001B61EB1A
:100410000201001C41F5801149084FEA3000001923
:10042000514132462B4603B0BDE8F04F00F09FB972
:100430000098012240000023D0EB020263EBE0733E
:10044000009821464FEAE074B8EB000061EB04012C
:10045000E9E783F000435BE781F0004158E72DE9CD
:10046000FE4F81EA030404F0004421F000410094AF
:100470004FF0000B23F0004350EA01045ED052EA33
:1004800003045BD0C3F30A54C1F30A552C44A4F20D
:10049000F3340194A0FB0254C1F3130141F4801121
:1004A000C3F3130343F4801301FB024400FB034E28
:1004B000840A970A44EA815447EA8357A4FB0768F1
:1004C00002958D0A05FB07854FEA932C04FB0C541B
:1004D0002705029D4FEA065847EA1637B5EB08058F
:1004E0006EEB070C870E920E47EA811742EA8312E1
:1004F000A7FB0201B6EB0B0164EB00042B0D43EAF2
:100500000C335E1844EB1C50DA465146E7FB0201FF
:10051000C5F313044FEA0B3343EA14534FEA043292
:10052000019C43EA0603A4F10C040294009CCDE96B
:1005300000B400F02BF903B0BDE8F08F00200146B5
:10054000F9E770B521F0004303430CD0C1F30A551D
:100550000024D5EB040564EB0403D617AD1AB341B0
:1005600002DB0020014670BD201841EB025170BD36
:10057000C10F80EAE0700844CA079623002100F00A
:10058000C8B896230022114600F0C3B80EB5C10FBB
:1005900080EAE0700844CA07002140F233438DE846
:1005A0000E000A460B4600F0F1F803B000BD0EB590
:1005B00040F2334102910021CDE900110A460B4679
:1005C00000F0E4F803B000BD00F0004220F000406D
:1005D000C10DC0F3160040F400007F2901DA0020AD
:1005E0007047962903DCC1F19601C84001E09639B5
:1005F0008840002AF4D04042704720F00040C10DEE
:10060000C0F3160040F400007F2901DA0020704793
:10061000962903DCC1F19601C8407047963988409D
:10062000704770B5C1F30A5201F000450024C1F3D0
:10063000130140F2FF3341F480119A4201DA0020A5
:1006400070BD40F233439A42A2F2334203DC52427D
:10065000FFF768FD00E090402C43F1D0404270BDB0
:1006600000F0004230F000400AD0C10D01F5607189
:10067000C0F3160042EA0151C20840071143704717
:1006800000200146704701F0004330B421F00041E2
:1006900050EA010206D00A0DA2F56072C1F31301FF
:1006A000002A02DC30BC00207047440F44EAC10439
:1006B000C100E01830BC00EBC25000F021B8202A85
:1006C00004DB203A00FA02F1002070479140C2F1A9
:1006D000200320FA03F3194390407047202A06DBD9
:1006E000CB17203A41FA02F043EAE07306E041FA00
:1006F00002F3D040C2F120029140084319467047EE
:100700000029A8BF7047401C490008BF20F0010025
:10071000704710B4B0FA80FC00FA0CF050EA010403
:1007200004BF10BC704749B1CCF1200421FA04F495
:1007300011FA0CF118BF012121430843A3EB0C016E
:10074000CB1D4FEA00614FEA102042BF002010BCD1
:10075000704700EBC35010440029A4BF10BC704781
:10076000401C490008BF20F0010010BC704710B5C4
:10077000141E73F1000408DA401C41F100019218C4
:100780005B411A4301D120F0010010BD2DE9F04D6D
:1007900092469B4611B1B1FA81F202E0B0FA80F2C2
:1007A00020329046FFF78BFF04460F4640EA0A00CE
:1007B00041EA0B0153465A46084313D0114653EA07
:1007C000010019D0C8F140025046FFF7ABFC0546C6
:1007D0000E46504659464246FFF771FF084305D082
:1007E000012004E020463946BDE8F08D0020054395
:1007F00046EAE0762C4337430A986305E40AA0EB07
:1008000008000022FD0A44EA47540A3002D50020BD
:100810000146E9E7010510196941DDE908450019BC
:100820006941BDE8F04DA2E7064C074D06E0E068DF
:1008300040F0010394E8070098471034AC42F6D327
:10084000FFF758FCB08D0008D08D000870B58C18EB
:1008500010F8015B15F0070301D110F8013B2A11D4
:1008600006D110F8012B03E010F8016B01F8016BC1
:100870005B1EF9D12B0705D40023521E0DD401F8BD
:10088000013BFAE710F8013BCB1A921C03E013F886
:10089000015B01F8015B521EF9D5A142D8D30020BB
:1008A00070BD000070B5044600688168C943C9077F
:1008B00017D1816821F00101816000F087FE0546B3
:1008C0000AE000BF00F082FE401B022804D9206825
:1008D0008068C043C00706D020688068C043C00756
:1008E000F0D0002070BDA06A40F01000A062E06A65
:1008F00040F00100E062012070BD0000F8B5002664
:100900000446009600688168C943C9072DD08168F4
:1009100041F001018160164816490068B0FBF1F012
:1009200000E0401E00900028FBD100F04FFE05467D
:1009300016E000BF00F04AFE401B022810D92068D4
:100940008068C043C0070BD0A06A40F01000A062CE
:10095000E06A40F00100E06284F824600120F8BD04
:1009600020688068C043C007E4D10020F8BD0000C3
:100970004C00002040420F0070B50F49FFF746FCC5
:100980000E4C05462066616EFFF740FC0C49A066E0
:100990000968FFF741FC06460A482946006880F0CE
:1009A0000040FFF739FC3146FFF730FCFFF70CFE43
:1009B0006566E06670BD000000C04145640000202F
:1009C0000C00002008000020FEE7000070B51D4864
:1009D0000121006800F088F81B480068FFF7C8FD97
:1009E000022100F081F819480321006800F07CF82A
:1009F00017480068FFF7BCFD042100F075F81548A2
:100A00000068FFF7B5FD052100F06EF812480621D9
:100A1000006800F069F8062000F026F80F4900226F
:100A20000F4B48700A700F4C1D1D06E01E687606BD
:100A3000FCD5A65C2E60521C0A70D2B28242F5D35D
:100A400070BD00003C00002030000020EC000020C1
:100A5000E8000020F4000020F00000206C010020DD
:100A600000380140EC0600200A2839D890B31D490F
:100A700024220B280A7033D2DFE800F032060A0E77
:100A800012161A1E22272D000520487106207047D5
:100A9000092048720A2070470D2048730E207047C5
:100AA0001120487412207047152048751620704791
:100AB000192048761A2070471D2048771E2070475D
:100AC000212081F8210022207047252081F825006F
:100AD0002620704704E0292081F829002A20F8E721
:100AE0000020F6E7EC06002003B50A2912D80029F9
:100AF00010D00B290ED2DFE801F00D06080E1012FF
:100B00001416181A1C00012200E005220A49684642
:100B100000F02BF80CBD0922F8E70D22F6E71122B0
:100B2000F4E71522F2E71922F0E71D22EEE7212271
:100B3000ECE72522EAE70000EC060020704710B53C
:100B40004FF4006000F040FCBDE810404FF48050CE
:100B500000F03ABC10B5202000F036FCBDE8104093
:100B6000802000F031BC72B6FEE703788B5411444C
:100B700043784B7082788A70C078C87070470000E4
:100B80000EB501210328CDE9000102D0062802D0CC
:100B900003E0002000E0072002906946074800F0CB
:100BA000EDF8064800F0E8FA0A21044800F046FA99
:100BB000024800F061F980B20EBD00007001002013
:100BC0000EB501210328CDE9000102D0062802D08C
:100BD00003E0002000E0072002906946074800F08B
:100BE000CDF8064800F0C8FA0A21044800F026FAB9
:100BF000024800F041F980B20EBD0000A0010020C3
:100C00002DE9F04100250E4607462C4605E0384602
:100C1000FFF7B6FF641C0544E4B2B442F7D3B5FB5A
:100C2000F6F080B2BDE8F08170B50B4C206A401C34
:100C3000206205280FDD094D616A2868FFF7E6FA92
:100C4000FFF7C2FC01F0E8FFFFF792FCE0612868C3
:100C500060620020206270BDE40000203C000020A3
:100C600010B50620FFF7ACFFFFF7A1FC4FF066328E
:100C7000094BFFF7F4FB0022084BFFF7F0FB0022C3
:100C8000074BFFF7ECFB6FF00B02FFF75AFCBDE8D8
:100C90001040FFF7C6BC000066660A400000264010
:100CA00000005940F8B500250446009590F824004E
:100CB000012808D0012084F824002046FFF7F2FD27
:100CC000060002D053E00220F8BDA06A20F488504C
:100CD00040F00200A062022000F01AFD26490968D7
:100CE000B1FBF0F0400000E0401E00900028FBD176
:100CF0002046FFF703FE2068816841F0080181600B
:100D000000F064FC074608E000F060FCC01B0A2805
:100D100003D920688068000715D420688068000720
:100D2000F2D42068816841F00401816000F04EFC3B
:100D3000074612E000F04AFCC01B0A280DD92068C3
:100D40008068400709D5A06A20F0020040F010003A
:100D5000A06284F824500120F8BD20688068400714
:100D6000E8D4A06A20F0020040F00100A06284F8FC
:100D700024503046F8BD00004C000020F8B5002497
:100D8000009490F824202546012A12D0012280F8F0
:100D900024204A681F23072A0DD20668776B521E4B
:100DA00002EB820293409F430B6893401F4377639B
:100DB00019E00220F8BD06680D2A0AD2376BD21F4F
:100DC00002EB820293409F430B6893401F433763BB
:100DD00009E0F76A0D3A02EB820293409F430B68E9
:100DE00093401F43F7620A68072306680A2A0AD35A
:100DF000F7680A3A02EB420293409F438B689340A4
:100E00001F43F76008E0376902EB420293409F43BB
:100E10008B6893401F4337610A68102A01D0112A5A
:100E200020D1124B02689A4217D193681B0219D441
:100E3000936843F4000393600968102912D10C49A8
:100E40000C4A0968B1FBF2F101EB8101490000E0B5
:100E5000491E00910029FBD104E0816A41F0200184
:100E60008162012480F824502046F8BD002401400E
:100E70004C00002040420F000068C06C704700002A
:100E80002DE9F0414FF0000704003D467ED0A06AF6
:100E9000002628B9E66284F82460204600F07EF837
:100EA0002046FFF7FFFCA16AC90600D420B1A06A62
:100EB00040F01000A06269E0A16A21F4885141F07D
:100EC0000201A1626268E169237B0A4347EA4301A8
:100ED0000A43A1684FF48077B94209D0012907D0AD
:100EE0005FF0000194F814C0BCF1010F02D00AE0D9
:100EF0003946F7E7F3B1A36A43F02003A362E36A3C
:100F000043F00103E3622368D3F804C02CF4694C76
:100F10004CEA010CC3F804C021688B68DFF870C08C
:100F200003EA0C0313438B60A168B9420BD001297B
:100F300009D00CE0DFF85CC0A3690CEB43330B4332
:100F400043F40061DFE7218A0D05A5F580152168CE
:100F5000CB6A23F470032B43CB62216889680E4B64
:100F60001940914208D1E662A16A21F0020141F0E4
:100F70000101A162BDE8F081A06A20F0020040F00A
:100F80001000A062E06A40F00100E0620120F1E799
:100F9000FDF7E1FF00E0FFFFFE0E1FFF10B586B07A
:100FA000002100910191029103911F4C03681F4998
:100FB00003221F48A34217D18B6943F400738B614E
:100FC0008B6903F4007304938B6943F004038B6112
:100FD000896901F0040104910821CDE900126946F4
:100FE00000F0FEF913481AE0134CA34219D18B69A3
:100FF00043F480638B618B6903F4806304938B6992
:1010000043F004038B61896901F0040104914021DC
:10101000CDE90012694600F0E3F906483030FFF7E9
:1010200041FE06B010BD0000002401400010024047
:101030000008014070010020002801402DE9F8431C
:1010400000270D460446009700F0C0FA804620684D
:101050008168C90508D5A06A40F02000A06284F824
:1010600024700120BDE8F8834168C90503D4C06A33
:1010700010F4700F2AD0022000F04AFB3B490968A7
:10108000B1FBF0F62068036939490B424FEA610170
:101090004FEAA1121FD1C3684FEA611C13EA0C0F7B
:1010A00019D103690B4225D1C068104222D1142006
:1010B00023E0681C0AD02DB100F088FAA0EB0800EC
:1010C000A84203D920680068800725D520680068F9
:1010D0008007EED52DE003690B4202D1C1681142B1
:1010E00006D0026923490A4206D1C068084203D1EA
:1010F000542002E0292000E0FC204643009816E03E
:10110000681C11D02DB100F061FAA0EB0800A842D4
:101110000AD90098B04207D2A06A40F00400A06249
:1011200084F8247003209DE70098401C0090B04292
:10113000E6D321686FF012000860A06A40F40070E6
:10114000A06220688068C0F3424007280CD1207B51
:1011500050B9A06A20F48070A062A06AC00403D4D1
:10116000A06A40F00100A06200207BE74C00002054
:10117000244992244992240070B5044690F8240032
:1011800001280DD0012084F824002046FFF7B6FB8B
:1011900002004FF0000005D084F82400104670BD16
:1011A000022070BDA16A40F20123994341F480718D
:1011B000A1621F4D23681F49AB4218D10E6816F477
:1011C000702F14D0A66A46F48016A6620E687605C3
:1011D00005D5A66A26F4005646F48056A662A66A8D
:1011E000F6040AD5E66A26F00606E66206E0A66A76
:1011F00026F48016A6625E68E9E7E06284F82400BF
:101200006FF00200186020688368C3F34243072B25
:1012100005D1A84208D1096811F4702F04D0816863
:1012200041F480118160B9E7816841F4A001F9E7D8
:10123000002801400424014070B5044600F0C6F9BE
:101240000546601C02D004480078044400F0BEF952
:10125000401BA042FAD370BD400000202DE9F05F92
:101260000520FFF7E9FF4B48D0F814114A4CDFF88E
:101270002CA14B4DDFF82C910026B1B1D0F81C21E8
:1012800049494FF0814B4FF07E53D2B1D0F83081B5
:10129000464A474FDFF81CC1DFF81CE1B8F1000FE8
:1012A0001FD0D0F82C0178B35CE04449087818B11D
:1012B0000020087010B155E00120FAE740480670A0
:1012C00050E00F68884638464FF07E51FEF74CFFDD
:1012D000C8F800005F4545D14FF07E50C8F80000C7
:1012E00040E00868984204D111682068FEF78EFF3C
:1012F0001EE0B0F1804F08D0604509D1DEF8001043
:101300002868FEF783FF1FE00BE03968574604E0CA
:10131000584527D12B484F4601683868FEF776FFBD
:101320001FE00868984205D111682068FEF71CFF8D
:10133000206017E0B0F1804F08D0604509D1DEF899
:1013400000102868FEF710FF28600BE03968574648
:1013500004E0584506D11B484F4601683868FEF73F
:1013600003FF386020684FF40001884200DA2660ED
:10137000DAF800208A4201DACAF800602868884258
:1013800000DA2E60D9F800208A4201DAC9F800603C
:10139000BDE8F09F00002142080000200C00002062
:1013A0001000002014000020180000201C00002065
:1013B0002000002000004040240000200000002009
:1013C0006400002028000020044910B50A68024289
:1013D00002D00860FFF742FF10BD00001404014076
:1013E0002DE9F84FDFF8B891002409F1040A0AF159
:1013F000040B23460F270BF1040EC9E00125A5407D
:101400002A40AA427DD1674ED1F804C0ACEB060851
:10141000B44532D014DCBCF1030F3AD009DCBCF186
:10142000000F2AD0BCF1010F1CD0BCF1020F31D14A
:101430001DE0BCF1110F17D0BCF1120F2AD119E039
:10144000B8F5881F19D006DCB8F5803F15D0B8F57F
:10145000801F1FD111E0B8F5001F0ED0B8F5041F92
:1014600018D10AE0CB6815E0CB681B1D12E0CB68F1
:1014700008330FE0CB680C330CE08B682BB1012BE9
:101480004FF0080303D0456104E0042302E0056146
:1014900000E00023FF2A01D8064601E000F104061F
:1014A0004FEA840501D9A5F12005D6F8008007FA96
:1014B00005FC28EA0C0803FA05F548EA0508C6F811
:1014C00000804D68ED0062D5374DAE6946F00106EB
:1014D000AE61AD6924F0030605F001050095334DBA
:1014E00006EB050CDCF80850A607360F07FA06F8DD
:1014F00025EA0805DFF8B880404503D14FF0000821
:1015000017E044E0DFF8AC80404502D14FF001081D
:101510000FE0DFF8A480404502D14FF0020808E058
:10152000DFF89880404502D14FF0030801E04FF00A
:10153000040808FA06F848EA0508CCF808804D685F
:10154000D9F80060ED034D4601D5164300E09643FF
:101550002E604D68DAF80060AD03554601D516439C
:1015600000E096432E604D68DBF80060ED025D46BA
:1015700001D5164300E096432E604D68DEF800600A
:10158000AD02754601D5164300E096432E60641CFB
:101590000D682A46E5407FF431AFBDE8F88F0000C2
:1015A0000004014000001110001002400000014042
:1015B00000080140000C01400010014000140140EF
:1015C0000AB1016170470904FBE700000148806827
:1015D00070470000400000200248816802781144F2
:1015E0008160704740000020074810B5016841F055
:1015F00010010160032000F079F8002000F006F8E7
:1016000000F024F8002010BD0020024070B50D4D00
:1016100004464FF47A712878B1FBF0F00A49096862
:10162000B1FBF0F000F0CAFB48B9102C07D2002241
:101630002146501E00F03AF800206C6070BD012079
:1016400070BD0000400000204C0000200E4808B58E
:10165000816941F001018161816901F0010100911D
:10166000C16941F08051C161C06900F080500090B3
:10167000052000F03BF80548416821F0E06141F0A9
:101680000071416008BD00000010024000000140F0
:10169000002809DB00F01F02012191404009800071
:1016A00000F1E020C0F8001170470000F0B40E4BCC
:1016B0001B680C46C3F30223C3F10705042D00D9B0
:1016C0000425191D072901D2002300E0DB1E012695
:1016D00006FA05F1491E214099409E40761E1640AB
:1016E0003143F0BC02F096B90CED00E0064900F081
:1016F000070208684FF6FF03184040EA0220034A39
:1017000010430860704700000CED00E00000FA058F
:1017100010B529A401461DCC86B08DE81D002AA075
:101720002A4C006804900020012923D002293AD0D5
:1017300010291DD161682268D20119D5C1F38342F5
:10174000C9031DF8020009D5616804AAC1F340412C
:10175000515C1F4AB2FBF1F1484301E01D49484387
:101760006168490204D440005FF00301B0FBF1F06E
:1017700006B010BD226AC2F30121012903D19207EC
:1017800001D5C803F4E7022905D1626A920702D5A0
:1017900049F64040ECE70329EAD121688903E7D5FF
:1017A0004FF22440E4E700F033F96168C1F381317E
:1017B000491C4900DAE7000002030405060708098E
:1017C0000A0B0C0D0E0F1010010200000010024059
:1017D00000127A0000093D002DE9F8430546007823
:1017E000354CC00754D0E0690026C00008D4E06939
:1017F00040F08050E061E069012600F080500090E8
:101800002E480168C90512D40168804641F48071F0
:101810000160FFF7DBFE074605E000BFFFF7D6FEDD
:10182000C01B642823D8D8F80000C005F6D5206A6C
:1018300010F4407021D0A98801F4407181421CD07D
:10184000206A1F49012220F440700A6000220A60C9
:101850002062C00711D0FFF7B9FE074641F2883871
:1018600008E000BFFFF7B2FEC11B414502D90320CB
:10187000BDE8F883206A8007F4D5206A696820F4FF
:101880004070084320621EB1E06920F08050E061A2
:101890002878800705D56068A96820F4404008438F
:1018A00060602878C00605D56068E96820F480008B
:1018B000084360600020DBE7001002400070004039
:1018C000400442422DE9F0470F46050061D0434EE7
:1018D000306800F00700B84209D2306820F00700F5
:1018E00038433060306800F00700B84251D12868B2
:1018F0003B4C810712D5400703D5606840F4E06097
:1019000060602878000703D5606840F4605060602C
:101910006068A96820F0F000084360602878C0077C
:1019200028D06868012810D02168022810D08907C3
:1019300000292EDA616821F0030101436160FFF79D
:1019400045FE804641F288390DE021688903EFE7C2
:101950008901EDE7FFF73AFEA0EB0801494502D9FE
:101960000320BDE8F0876068696800F00C00B0EB08
:10197000810FEFD1306800F00700B8420BD9306812
:1019800020F0070038433060306800F00700B842AC
:1019900001D00120E5E72878400705D56068E968AF
:1019A00020F4E060084360602878000706D560688E
:1019B000296920F4605040EAC100606000F038F806
:1019C0006168084AC1F30311515CC84006490860C8
:1019D00006480068FFF71AFE0020C2E70020024018
:1019E00000100240424A00084C0000204400002041
:1019F0000448054900684968044AC1F30221515C62
:101A0000C84070474C00002000100240524A0008B5
:101A10000448054900684968044AC1F3C221515C81
:101A2000C84070474C00002000100240524A000895
:101A300012A185B00FC98DE80F0014A0144A0068E8
:101A400004905168134801F00C03042B10D0082BAC
:101A50000ED1C1F38343C9031DF803000AD55168B1
:101A600004AAC1F34041515C0A4A5043B0FBF1F073
:101A700005B0704708494843FAE70000020304052F
:101A8000060708090A0B0C0D0E0F101001020000CA
:101A90000010024000127A0000093D002DE9F84FC5
:101AA000040070D02078C04DC00749D06868C0F3EA
:101AB0008100012807D06868C0F38100022809D19D
:101AC0006868C00306D52868800339D56068002897
:101AD000E7D035E06068B0F5803F0BD010B1B0F5CD
:101AE000A02F11D0286820F480302860286820F4C6
:101AF000802002E0286840F480302860606890B15F
:101B0000FFF764FD06460AE0286840F4802028605C
:101B1000F0E700BFFFF75AFD801B642873D82868E0
:101B20008003F7D50CE0FFF751FD064605E000BF46
:101B3000FFF74CFD801B6428F0D828688003F7D499
:101B400020789A4E80074FF001094FF0000839D5F0
:101B5000686810F00C0F07D06868C0F38100022895
:101B600009D16868C00306D42868800714D52069A5
:101B7000012808D110E02069B0B1C6F80090FFF745
:101B800025FD074605E00AE1FFF720FDC01B0228FE
:101B9000C4D828688007F7D52868616920F0F80064
:101BA00040EAC10028600DE0C6F80080FFF70EFD96
:101BB000074604E0FFF70AFDC01B022823D8286867
:101BC0008007F7D4207800072CD57948A169D9B1CE
:101BD000C0F80090FFF7FAFC074604E0FFF7F6FCB8
:101BE000C01B02280FD8686A8007F7D571484FF4E8
:101BF000FA510068B0FBF1F0009000BF0098411E60
:101C00000091FAD20EE080E0C0F80080FFF7DEFC21
:101C1000074604E0FFF7DAFCC01B022875D8686AA3
:101C20008007F7D42078400760D5E8690027C00016
:101C300008D4E86940F08050E861E869012700F0C5
:101C4000805000905C480168C90513D40168834640
:101C500041F480710160FFF7B9FC824606E000BFE5
:101C6000FFF7B4FCA0EB0A0064284ED8DBF80000B4
:101C7000C005F5D5E06801280AD008B1052813D0C1
:101C8000286A20F001002862286A20F0040002E09F
:101C9000286A40F001002862E06841F2883B98B170
:101CA000FFF794FC82460BE0286A40F004002862AB
:101CB000EEE700BFFFF78AFCA0EB0A0159455AD8AE
:101CC000286A8007F6D50CE0FFF780FC824605E025
:101CD000FFF77CFCA0EB0A0159454CD8286A800725
:101CE000F6D41FB1E86920F08050E861E06988B35C
:101CF0006968C1F38101022944D00228C6F86080D6
:101D000004D0FFF763FC044638E034E0FFF75EFCE4
:101D1000074604E0FFF75AFCC01B02282BD82868AE
:101D20008001F7D4206AB0F5803F05D16868A168CA
:101D300020F4003008436860D4E90801084369686A
:101D400021F4741108436860C6F86090FFF73EFC08
:101D5000044606E025E000BFFFF738FC001B022820
:101D600009D828688001F7D51BE000BFFFF72EFCDB
:101D7000001B022802D90320BDE8F88F28688001E3
:101D8000F4D40EE00128F7D06868226A00F48031AC
:101D9000914204D1616A00F47010884201D00120A0
:101DA000EAE70020E8E7000000100240000042429D
:101DB000800442424C0000200070004010B5401EDC
:101DC000B0F1807F01D3012010BD4FF0E0246061AD
:101DD0000F21601701F01EFE0020A0610720206186
:101DE000002010BD7047704770B590F83C20012A64
:101DF00026D0012480F83C40022280F83D20036870
:101E00005A689D6822F070060A6832435A600D4B8A
:101E100002689A4208D0B2F1804F05D00A4B9A422C
:101E200002D00A4B9A4204D1496825F08003194335
:101E3000916080F83D40002180F83C10084670BD5C
:101E4000022070BD002C014000040040000800404A
:101E500010B5040003D094F83D0010B107E0012054
:101E600010BD002084F83C00204600F01FF802203E
:101E700084F83D00211D206801F0C0F9012084F89C
:101E8000460084F83E0084F83F0084F8400084F85F
:101E9000410084F8420084F8430084F8440084F848
:101EA000450084F83D00002010BD000008B5114A2F
:101EB00001681148914211D1816941F40061816149
:101EC0008069032200F40060009001211920FFF7CF
:101ED000EDFBBDE808401920FFF7DABB074A914245
:101EE00007D1C16941F00201C161C06900F002007F
:101EF000009008BD002C014000100240000400408A
:101F000090F83D10012901D001207047022180F88E
:101F10003D100168CA6842F00102CA6000680B49BE
:101F2000884208D0B0F1804F05D00949884202D0DC
:101F30000849884204D1816801F00701062903D0CD
:101F4000016841F00101016000207047002C014050
:101F5000000400400008004070B5044690F83C00C2
:101F6000012817D0012584F83C50022084F83D0058
:101F70002068826822F0770222F47F42826008683B
:101F8000502830D00DDC20284DD005DC98B3102827
:101F90003BD148E0022070BD302844D0402834D1E5
:101FA00039E0602828D0702806D0B0F5805F2CD0AA
:101FB000B0F5005F29D10AE0CB68D1E901212068A2
:101FC00001F05FF92068816841F0770109E0CB6892
:101FD000D1E90121206801F054F92068816841F4B9
:101FE0008041816011E0CA684968206801F0FEF90B
:101FF0005021206807E016E0CA684968206801F0AF
:1020000006FA6021206801F046F984F83D5000206E
:1020100084F83C0070BDCA684968206801F0E6F9A0
:1020200040212068EFE7226801461046EBE72DE9E2
:10203000F0410D46040003D094F83D0018B108E0CB
:102040000120BDE8F081002084F83C00204600F02B
:1020500041F8022084F83D002068816844F20702BC
:1020600091438160211D206801F0C8F822689068C2
:102070009169166A2B68AF69034340F203308143CC
:1020800041EA0721A868EF6908434FF6FC418843FD
:10209000E96840EA0720014328692F6A000140EA05
:1020A0000730084369686D6926F0220646EA05157F
:1020B000294393602268906154F8460B0162012025
:1020C00004F81F09E0752076E0762077A0750020DF
:1020D000B7E7000000B585B00021009101910291A1
:1020E000039100680D49884216D10D48C16941F03D
:1020F0000401C161C16901F004010491816941F0E9
:10210000080181618069694600F008000490C020E0
:1021100000900448FFF764F905B000BD00080040D6
:1021200000100240000C014070B590F83E6004467B
:1021300090F83F5090F8423090F84320022021B1AF
:1021400004290ED0012E1BD114E0012E18D1012B31
:1021500016D184F83E0084F8420001220021206854
:1021600020E0012D0CD1012A0AD184F83F0084F827
:10217000430014E0012D03D1012B01D1012A01D02C
:10218000012070BD84F83E0084F83F0084F84200CE
:1021900084F8430001220021206801F065F8012243
:1021A0000421206801F060F82068016841F0010115
:1021B0000160002070BD704770B504460068016979
:1021C0004FF00005C943890715D4C168C943890781
:1021D00011D4E91E01610120207720688069800701
:1021E000204602D0FFF7E7FF04E000F0BFF82046EA
:1021F00000F04EF9257720680169C943490717D4D3
:10220000C168C943490713D46FF00401016102207A
:1022100020772068806910F4407F204602D0FFF7C5
:10222000CAFF04E000F0A2F8204600F031F925775B
:1022300020680169C943090716D4C168C943090761
:1022400012D46FF008010161042020772068C06972
:102250008007204602D0FFF7AEFF04E000F086F8CA
:10226000204600F015F9257720680169C943C906A1
:1022700017D4C168C943C90613D46FF010010161B6
:10228000082020772068C06910F4407F204602D0E3
:10229000FFF791FF04E000F069F8204600F0F8F83D
:1022A000257720680169C943C90708D1C168C943B6
:1022B000C90704D1891E0161204600F039F9206860
:1022C0000169C943090609D4C168C943090605D48F
:1022D0006FF0800101612046FFF784FD20680169ED
:1022E000C943490609D4C168C943490605D46FF0FA
:1022F00040010161204600F0BFF920680169C9432F
:1023000089060BD4C168C943890607D46FF0200140
:1023100001612046BDE87040FFF765BD70BD00005B
:1023200000B585B0002100910191029103910068F0
:102330000B49884211D10B48816941F00801816144
:102340008069694600F00800049002200090019026
:10235000032003900448FFF743F805B000BD0000D8
:102360000004004000100240000C0140704770B5AE
:10237000044690F83C000D4601280AD0012084F85C
:102380003C0042B1042A18D0082A2AD00C2A4DD188
:1023900039E0022070BD206800F086FF2068816966
:1023A00041F0080181612068816921F004018161A7
:1023B000206881692A69114311E0206800F09CFFC0
:1023C0002068816941F4006181612068816921F49C
:1023D00080618161206881692A6941EA0221816105
:1023E00024E0206800F0B4FF2068C16941F00801D2
:1023F000C1612068C16921F00401C1612068C1691F
:102400002A69114311E0206800F0CEFF2068C169FD
:1024100041F40061C1612068C16921F48061C1613A
:102420002068C1692A6941EA0221C161002084F85B
:102430003C0070BD10B5040003D094F83D0010B10D
:1024400007E0012010BD002084F83C00204600F089
:102450001EF8022084F83D00211D206800F0CEFE09
:10246000012084F8460084F83E0084F83F0084F898
:10247000400084F8410084F8420084F8430084F866
:10248000440084F8450084F83D00002010BD7047EA
:102490007047000010B50446022249B104290ED04D
:1024A000082913D094F84100012816D0012010BD4E
:1024B00094F83E000128F9D184F83E200FE094F80A
:1024C0003F000128F2D184F83F2008E094F8400052
:1024D0000128EBD184F8402001E084F8412001225A
:1024E000206800F0C1FE0F492068884203D1426C89
:1024F00042F4004242642068884208D0B0F1804F24
:1025000005D00949884202D00849884204D181682F
:1025100001F00701062903D0016841F001010160C3
:10252000002010BD002C01400004004000080040C5
:102530002DE9F05F4649DFF81C91474E88427AD179
:10254000464908780025012808D145480278521CE0
:10255000D2B202700A2A01D105700D70042000F079
:10256000D7FD404F0A2138600320FEF749FBFEF7F4
:1025700008F8DFF8F480C8F80000FEF755FB3B4C84
:10258000DFF8ECB0DFF8ECA0607801281DD13078DE
:10259000F0BBD9F8000001F063F8207830B9396851
:1025A000CBF8001065610120A5612070307860B91A
:1025B0003968D8F8000001F0D7F8CAF8000001F037
:1025C00019FADAF8000000F0BBFD607800BBD9F81A
:1025D000000001F045F8207838B93968CBF80010D0
:1025E00065676566E57101202070307880B9D8F89C
:1025F0000000FEF7C1F9A065E079401CC0B2E071AF
:10260000042804D9386800F031FDE065E57101E087
:102610000BE010E0D4E91601401A5446CAF8000055
:1026200001F0E8F9206800F08BFD3078012802D134
:10263000002000F085FD307810B9642000F0E8F843
:10264000FEF70EFBC9F80000BDE8F05F00F094B89B
:10265000D001002038000020000000202D000020C4
:102660002C000020300000203C00002064000020EE
:102670000400002034000020704770B5040004D02E
:1026800094F83D00002510B106E0012070BD84F8EB
:102690003C50204600F022F8242084F83D002068B9
:1026A000C16821F40051C160204601F001F82068A2
:1026B000016921F4904101612068416921F02A01FA
:1026C00041612068C16841F40051C1602564202047
:1026D00084F83D0084F83E00002070BD30B585B020
:1026E00000240094019402940394006814498842E1
:1026F00024D11448816941F480418161816901F4E8
:1027000080410491816941F00401816180690E4D2D
:1027100000F0040004904FF400700090022001903B
:102720000320039069462846FEF75AFE2815CDE996
:102730000004694628460294FEF752FE05B030BDFB
:10274000003801400010024000080140FEE7000090
:1027500041060748826942F00102826105484268E9
:1027600022F0E062426042680A4342607047000023
:1027700000100240000001402DE9F0414FF4826852
:10278000642001F05BFA1E4C01271E4D0026E0621A
:10279000012807D0022809D0206B012803D0022885
:1027A00006D00FE027632868001D03E002202063A5
:1027B0002868001F2860606B001D6063404501D1E0
:1027C0002663666300F05AF8012806D142F21070C1
:1027D0002860607878B1002060700B48007801288C
:1027E00007D160780949012807D0002801D1C1F834
:1027F0009071BDE8F0810120EEE7C1F89061F8E743
:10280000640000200400002000000020000021429D
:1028100010B5094A002360B108490C68641C0C60BB
:10282000844205D1D2F89001C043C2F890010B60F8
:1028300010BDC2F8903110BD0000214250000020B0
:102840000C48002142891AB90B4BD3F81C310BB14B
:1028500001810AE003895B1C9BB20381142B04D91C
:1028600001224281018110467047012A00D1418135
:102870000020704754000020000021420C48002135
:10288000C2891AB90B4BD3F808310BB181810AE028
:1028900083895B1C9BB28381C82B04D90122C2812E
:1028A000818110467047012A00D1C1810020704704
:1028B0005400002000002142FEB500241E48009470
:1028C000019402941B4984600160047304754FF401
:1028D00060260125C66105614460FEF7D1FA08B1A2
:1028E000FEF741F90320CDE900056946029412483C
:1028F000FEF744FA08B1FEF736F90F480F493030B9
:102900008460016004730475C66105614460FEF76C
:10291000B7FA08B1FEF727F90620CDE90005064809
:10292000694602943030FEF729FA002801D0FEF7FC
:102930001AF9FEBD0024014070010020002801406A
:102940002DE9F04385B000253D480095019502959D
:102950000395816941F020018161816901F02001C5
:102960000491816941F004018161816901F00401F0
:102970000491816941F0080181618069DFF8C480B8
:1029800000F008000490012210214046FEF718FED6
:10299000DFF8B490002243F238014846FEF710FEFB
:1029A0004FF40047002239464046FEF709FE042056
:1029B000CDE900050124694602944046FEF710FD6A
:1029C0001020CDE900040326CDE9024669464046C1
:1029D000FEF706FD4FF4C55000901C48CDE90104F8
:1029E00069464046FEF7FCFC43F218008DE8710092
:1029F00069464846FEF7F4FC01AA009782E8700099
:102A000069464046FEF7ECFC20208DE831000220AC
:102A1000039069464846FEF7E3FC02221146172060
:102A2000FEF744FE1720FEF733FE0222114628204F
:102A3000FEF73CFE2820FEF72BFE05B0BDE8F08334
:102A40000010024000080140000C0140000021106D
:102A500010B586B000241A4800940194029403949F
:102A6000049416490594016041F61F41C0E9011420
:102A70003121C0E9031444618461FFF7E9F908B129
:102A8000FEF771F84FF48050009069460C48FFF74C
:102A900063FA08B1FEF767F8049404A9084805949E
:102AA000FFF7A2F908B1FEF75EF80548FFF7D0F985
:102AB0000348FFF725FA06B010BD0000002C0140C6
:102AC000D001002010B58EB000240794089409941A
:102AD0000A940B941C2168460C94FDF73AFB20489D
:102AE0001E49C0E9001441F61F41C0E902410461DA
:102AF0008461FFF7ADF908B1FEF735F84FF4805067
:102B0000079007A91648FFF727FA08B1FEF72BF838
:102B10001348FFF78FFC08B1FEF725F80B940BA9BB
:102B20000F480C94FFF760F908B1FEF71CF860201D
:102B3000CDE9000402940C22694609480494FFF789
:102B400016FC08B1FEF70FF80C210548FFF7A2FCB0
:102B50000348FFF7E5FB0EB010BD00000004004085
:102B60001802002010B58CB024216846FDF7F1FA58
:102B700000241A48099418490A94C0E900144FF631
:102B8000FF71C0E90241046184610320CDE90004C2
:102B90000120CDE902040A210491CDE90540CDE9E7
:102BA000074169460D48FFF742FA08B1FDF7DBFF20
:102BB000099409A909480A94FFF716F908B1FDF725
:102BC000D2FF054942F21070243108603C210348CD
:102BD000FFF7AAFA0CB010BD000800406002002008
:102BE0000C4810B50A4901604FF4FA3141600021E8
:102BF00081600C22C160C0E904128161C161FFF7EC
:102C00003CFD002803D0BDE81040FDF7ACBF10BD6F
:102C100000380140A802002030B500210D4B0122F0
:102C200003EB420533F81240521CD2B225F8024C95
:102C3000042AF5D3D880002033F91020401CC0B2FC
:102C400011440428F8D3C81701EB907040F38F00AB
:102C500030BD000014010020FEE7FEE710B40021A3
:102C6000084B0A465FF0000003EBC004401CC0B2F2
:102C700062548028F8D3491CC9B20829F2D310BC89
:102C800000F096B8EC02002010B57F2816D83F2936
:102C900014D80723A3EBD10301F00701C1F1070406
:102CA0000121A140064CDBB204EBC000002AC25C4B
:102CB000C9B201D00A4300E08A43C25410BD0000EB
:102CC000EC02002010B5394C0020C4F88C016420BF
:102CD00004F5C674FEF7B0FA012020600021AE2092
:102CE00000F09EF90021D52000F09AF90021502033
:102CF00000F096F90021A82000F092F900213F2071
:102D000000F08EF90021D32000F08AF90021084656
:102D100000F086F90021402000F082F900218D208A
:102D200000F07EF90021142000F07AF90021202023
:102D300000F076F90021022000F072F90021A120B4
:102D400000F06EF90021C02000F06AF90021DA20BD
:102D500000F066F90021122000F062F900218120C4
:102D600000F05EF90021EF2000F05AF90021D9208F
:102D700000F056F90021F12000F052F90021DB208B
:102D800000F04EF90021302000F04AF90021A42083
:102D900000F046F90021A62000F042F90021AF2002
:102DA00000F03EF9BDE81040FFF758BF0080214217
:102DB00070B5114E002400BF04F1B000C0B2002174
:102DC00000F02EF90021084600F02AF90021102019
:102DD00000F026F95FF0000506EBC5000121005D5B
:102DE00000F01EF96D1CEDB2802DF5D3641CE4B229
:102DF000082CE1D370BD0000EC0200202DE9FF4F4C
:102E0000203A1F460C46894602F0FF0A0025DDF8ED
:102E100034B032E00C2F09D01A4901EB0A104FF000
:102E20000008465D300607D55A4609E016490AEB08
:102E30004A0001EB8000F2E7BBF1000F12D0002244
:102E400021460098FFF720FF7006641C060EE4B2CE
:102E5000A4EB0900B84207D100984C46401CC0B210
:102E6000009008E00122EBE708F1010000F0FF0804
:102E7000B8F1080FD6D36D1CEDB2BD42CAD3BDE880
:102E8000FF8F0000D04E00085C4A00082DE9F04F8B
:102E9000824618489B460C468846002500EBC2191E
:102EA000002619F82570380601D55A4603E0BBF113
:102EB000000F16D0002221465046FFF7E5FE7806A7
:102EC000641C070EE4B2A4EB080010280BD0761C9B
:102ED000F6B2082EE7D36D1CEDB2202DE0D3BDE88D
:102EE000F08F0122E7E70AF10100444600F0FF0AF3
:102EF000F1E70000C05400082DE9F04F0C46884669
:102F000082461849C2EBC2009B46002501EB00191E
:102F1000002619F82570380601D55A4603E0BBF1A2
:102F2000000F16D0002221465046FFF7ADFE78066E
:102F3000641C070EE4B2A4EB080010280BD0761C2A
:102F4000F6B2082EE7D36D1CEDB21C2DE0D3BDE820
:102F5000F08F0122E7E70AF10100444600F0FF0A82
:102F6000F1E70000C05F00082DE9FF4F81B00026A7
:102F7000DDF838A01D469346814634464FF00108DF
:102F80004FEA5A0727E0281B401EC1B20A2000F072
:102F90000FFFBBFBF0F00A21B0FBF1F201FB1200C6
:102FA00026B9691E8C4201DA48B101263030C2B21E
:102FB00007FB0490C0B25346CDF8008006E007FB43
:102FC0000490C0B253462022CDF800800299FFF74A
:102FD00015FF641CE4B2AC42D5D305B0BDE8F08F58
:102FE000F8B516460D460446012714E07A2C02D99E
:102FF00000241035EDB23A2D03D900242546FFF701
:103000002DFE009732780C2329462046FFF7F6FE66
:103010000834E4B2761C30780028E7D1F8BD00000F
:1030200070B50F4C0025012211B1C4F8BC2101E09C
:10303000C4F8BC510B4B0021C3F89451060602D5CD
:10304000C3F8902101E0C3F89051C3F894214006E1
:10305000491C000EC9B20829EED3C4F8BC2170BDCA
:103060000000214200802142704700002DE9F0411C
:1030700020490968401AFDF77BFA1F490546A1F16E
:1030800080040860A06FFDF7EBFA1C4F1C4B3A461A
:10309000FDF7E5F9FDF7F7FA06462846FDF7E0FAF1
:1030A0003A46184BFDF7DBF905460F463046FDF76B
:1030B000D7FA2A463B46FDF72BF9FDF7E4FAA0675D
:1030C0000546616FFDF7A2F865670246E0670E48A6
:1030D00001681046FDF7A0F806460C48016828462E
:1030E000FDF79AF83146FDF73FF82067BDE8F0415B
:1030F000FDF76ABA04000020E40000209A9999992B
:103100009999E93F9999C93F1400002010000020C7
:10311000022805D0032807D0042807D000207047D4
:103120004FF08040406A03E0024800E00248006837
:1031300000B270472404004024080040704700009B
:1031400000B5002201230849002804DAC1F8B03193
:10315000C1F8B42103E0C1F8B021C1F8B43100F0E6
:1031600023FE0249086000BD008021424004004067
:10317000FEF732BA30B593B028216846FCF7E9FF74
:1031800014210AA8FCF7E5FF002501200F951095F2
:103190001195010412958DE8230004904FF4E0107E
:1031A000CDE90810022407946846FEF777FC08B1C1
:1031B00072B6FEE70AA90F2081E831004FF4806063
:1031C000CDE90D0502210AA8FEF77CFB08B172B615
:1031D000FEE74FF4004011900F940FA8FEF7FCFAA1
:1031E000002801D072B6FEE713B030BD7047000072
:1031F0000148FEF7E1BF0000D0010020F0B50268F1
:10320000164B174C174D4FF08047984205D0B842E7
:1032100003D0A04201D0A84203D122F070064A6830
:103220003243984205D0B84203D0A04201D0A84210
:1032300003D122F44074CA6822434C6922F0800210
:10324000224302608A68C2620A688262984201D19F
:103250000969016301214161F0BD0000002C0140BA
:10326000000400400008004010B501F01F030121D8
:10327000046A99408C430462016A9A4011430162D6
:1032800010BD10B5846842EA032224F47F440A4347
:103290002243826010BD826822F070020A4342F02D
:1032A000070181607047000030B5026A22F0010218
:1032B0000262026A4368846924F073050C682C4337
:1032C00022F002058A682A430A4DA8420BD122F057
:1032D0000805CA6823F440732A434D6922F00402AA
:1032E0001D438B692B4343608461496841630262DB
:1032F00030BD0000002C014030B5026A22F01002FF
:103300000262026A436884690D6824F4E64444EA70
:1033100005248D6822F0200242EA05120B4DA842D6
:103320000ED1CD6822F0800242EA05124D6923F4E5
:10333000406343EA85038D6922F0400243EA850336
:103340004360846149688163026230BD002C0140A2
:1033500030B5026A22F480720262036A4268C4696C
:1033600023F4007324F073050C682C438D6843EA42
:1033700005230C4DA8420ED1CD6823F4006343EA27
:1033800005234D6922F4405242EA05128D6923F467
:10339000806342EA05124260C4614968C163036206
:1033A00030BD0000002C014030B5026A22F480528A
:1033B0000262046A4268C3690D6823F4E64343EA83
:1033C00005238D6824F4005444EA0534064DA842D0
:1033D00004D14D6922F4804242EA85124260C36101
:1033E00049680164046230BD002C014010B5036AD5
:1033F000046A24F001040462846924F0F00444EABD
:10340000021423F00A020A438461026210BD10B55F
:10341000036A23F0100303628369046A23F4704390
:1034200043EA023224F0A00343EA011182610162FF
:1034300010BD00002DE9F84FDFF804B2DFF8049268
:10344000DFF804A2814C4FF00008814D2878012854
:103450003DD000F0B5FC00BFFFF7F2F9012858D0CD
:1034600099F80000012877D1464689F80080FFF7D7
:10347000F5FB0120287077480660DBF8001021F08A
:103480002001CBF80010DBF8001021F08001CBF810
:103490000010DBF8001021F40061CBF80010DBF81D
:1034A000001021F48051CBF800106B48016801F046
:1034B000FE01016000F096FB054600F06BFE1E2049
:1034C000FDF7BAFE052D28D00C2DF3D1BDE785F808
:1034D0000080DBF8001041F02001CBF80010DBF891
:1034E000001041F08001CBF80010DBF8001041F42F
:1034F0000061CBF80010DBF8001041F48051CBF8EC
:1035000000105548016841F001010160FFF7A6FB7A
:10351000A2E7012089F80000A6E7FFF79FFB1E2025
:10352000FDF78AFE00F05EFB054600F0F2FE0B2D73
:1035300004D00C2DF3D1FFF791FBBBE7FFF78EFB17
:1035400000F0CAFF1E20FDF777FE00F04BFB0B28B2
:1035500003D00C28F4D1E0E770E0FFF77FFB00BF59
:1035600001F097F81E20FDF767FE00F03BFB0B28EB
:1035700002D00C28F4D1E1E7FFF770FB55460F218C
:103580000320FDF73DFBFCF7FCFF286001F070F91C
:103590003220FDF751FE00F025FB0C28DDD0052878
:1035A000EDD1FFF75BFB0A2684F8008010270F217E
:1035B0000320FDF725FBFCF7E4FF286002233246D9
:1035C000102158200097FFF7CFFC00F057FA6078E1
:1035D000401C60701E20FDF72FFE6078C82820D8A0
:1035E0001E4A29681144B1F5882F10D82178491C4A
:1035F000C9B2217096290AD9FFF730FB454665709C
:1036000001F0C6F900F0EEFA0528F8D11DE7142103
:10361000B0FBF1F201FB12000128C8D1761EF6B210
:10362000C5E784F80180FFF719FB00F04DFB4FF46C
:10363000FA60FDF701FEFFF711FBA0E7BDE8F88F88
:1036400000040140010000203C0000206E01002029
:1036500002000020400400400C2C0140008083BB8D
:1036600030B50E4903460125087801280ED0002008
:103670000B4A0C4C1268A24205DD0B4CA24202DA46
:10368000B3F52F7F01DA0D70012030BD074C01200A
:103690000022C4F8B421C4F8B021E9E700000020FA
:1036A0003C0000200080224500006145008021424E
:1036B00070B5044600680169E26821F44051114385
:1036C00001612169A0680843616908432168CA68EB
:1036D00041F20C639A430243CA6020684169A269BF
:1036E00021F44071114341611E492068884202D192
:1036F000FEF78EF901E0FEF77BF900EBC00101EB6C
:103700000012606864218000B2FBF0F3B3FBF1F3B8
:103710006FF018067343B2FBF0F5B2FBF0F605EB61
:103720008305322303EB0515B5FBF1F5B6FBF1F686
:1037300005F0F00505EB0615B2FBF0F6B2FBF0F074
:10374000B0FBF1F06FF01802504306EB800003EB82
:103750000010B0FBF1F0216800F00F0028448860F1
:1037600070BD0000003801402DE9F04F984F04462D
:103770008FB09648B8609748DFF84C9202687A603C
:10378000881A00F0F7FC0A902046B968FCF73EFD65
:1037900000F060F9824607F12800A7F18004016873
:1037A0000691406805904FF0000B61690A98FCF79C
:1037B0002DFD894E3146FCF761FD05465046A16955
:1037C000FCF724FD3146FCF759FD80464946284662
:1037D000FCF722FD814E05463146606AFCF71CFD70
:1037E0002946FCF7C1FC054649464046FCF714FD56
:1037F00080463146A06AFCF70FFD4146FCF7B4FC59
:10380000C4E9095004F1F80806465146D8F8040006
:10381000FCF702FD81462946D8F80000FCF7FCFCC5
:103820004946FCF7A1FC04905146D8F80C00FCF77F
:10383000F3FC81462946D8F80800FCF7EDFC494620
:10384000FCF792FC039059460A98FCF7DFFC0190C4
:10385000594608955046FCF7D9FC07964FF07F551E
:10386000029029460898FCF7D7FC0199FCF77CFCEC
:10387000DFF86C81814641460898FCF7CDFC019940
:10388000FCF772FC064629460798FCF7C5FC02992E
:10389000FCF76AFC834641460798FCF7BDFC029999
:1038A000FCF762FC05460298216920F00040FCF715
:1038B000B3FC80460198E16820F00040FCF7ACFCC6
:1038C0004146FCF751FCF860464B019004F1B8000A
:1038D00000F11001994509D39E4203D3D0F800802E
:1038E0000E680CE0D0F804804E6808E09E4203D2D7
:1038F000D0F808808E6802E0D0F80C80CE68344999
:103900009946583101F11000CB4507D34D4502D3FC
:103910000F68056809E04F68456806E04D4502D22A
:103920008F68856801E0CF68C5680A98C4E9050A10
:1039300028460599FCF770FC044630460699FCF7CA
:103940006BFC2146FCF710FC044620F000412648A1
:10395000814203DA4C4500D32448044628460399A3
:10396000FCF75AFC054630460499FCF755FC2946FD
:10397000FCF7FAFB054638460799FCF74DFC06466E
:1039800040460899FCF748FC3146FCF7EDFB80F017
:1039900000402946FCF73AFC0D4D0199FCF7E4FB89
:1039A000064621464FF07E50FCF768FC3146FCF796
:1039B00033FCFCF709FE4FF47A71286148436861D3
:1039C0000FB04042BDE8F08F9A99993E00C0414542
:1039D000E4000020040000200AD7A33B3333333F28
:1039E000ABAA2A3E00008080BD378635BD3786B53C
:1039F000FEE70000064941F6F42043420A689A4275
:103A000001DA0B6070478242FCDD086070470000FD
:103A1000340000200907090E002804DB00F1E02033
:103A200080F80014704700F00F0000F1E02080F8EB
:103A3000141D704702E008C8121F08C1002AFAD1FD
:103A400070477047002001E001C1121F002AFBD11E
:103A50007047000010B56FF00B01FCF74DFCFCF750
:103A6000FFFD044A044BFCF7FAFCBDE81040FCF7EC
:103A70000ABE0000F1D4C853FB21194038B5012318
:103A8000382200211520FFF737FA012339220021BF
:103A90002320FFF731FA01233A2200213120FFF7DA
:103AA0002BFA01233B2200213F20FFF725FA0123B7
:103AB0003C2200214D20FFF71FFA01233D22002167
:103AC0005B20FFF719FA01233E2200216920FFF74E
:103AD00013FA01233F2210210020FFF70DFA0123E2
:103AE000402210210E20FFF707FA01234122102166
:103AF0001C20FFF701FA01231C2210212E20FFF7C2
:103B0000FBF901231C2210213520FFF7F5F90123D1
:103B10001C2210213C20FFF7EFF901231C22102169
:103B20004320FFF7E9F901231C2210214A20FFF767
:103B3000E3F901231C2210215120FFF7DDF90123B5
:103B40000C2220210E20FFF7D7F901232B22202160
:103B50001C20FFF7D1F901232C2220212A20FFF776
:103B6000CBF90123242220213820FFF7C5F90123B6
:103B7000252220214620FFF7BFF901232D222021F5
:103B80005420FFF7B9F901232E2220216220FFF7EC
:103B9000B3F9012410234122302118200094FFF7AB
:103BA0002DF910234422302120200094FFF726F91C
:103BB00010234322302128200094FFF71FF90848E2
:103BC0000068FCF71AFD0246102000900423302103
:103BD0004E20FFF7C9F9BDE83840FFF7E9B800000B
:103BE0003C000020134810B5C17849B1124CD4F8FC
:103BF000141149B1D4F82C1131B1D4F8301119B1E4
:103C00000121C170002010BD0021C1703220FDF7DC
:103C100013FBD4F8140140B1D4F82C0138B1D4F816
:103C200030010028EED10C2010BD052010BD0B2066
:103C300010BD0000540000200000214230B5204B90
:103C4000D3F808411F4900222CB1CA80D3F808518B
:103C5000012425B106E0CC88641CCC80F6E70D7801
:103C600005B90C704D784DB90D78012D03D18D78C3
:103C70006D1C8D704C708C78022C04D0D3F80831F8
:103C8000012B04D005E08A708A80022030BD0A70C2
:103C90004A708B78012B11D18B885B1C9BB28B8077
:103CA000834206D9CB88834203D28A708A8001205E
:103CB00030BDCB88834201D98A708A80002030BD14
:103CC000000021425400002010B501230E221021D3
:103CD0001820FFF7DBF801230F2210212820FFF71F
:103CE000D5F81022012311463820FFF7CFF8012321
:103CF000112210214820FFF7C9F8012312221021B8
:103D00005820FFF7C3F80123132220211820FFF7C2
:103D1000BDF80123142220212820FFF7B7F8012342
:103D2000152220213820FFF7B1F80123002220219D
:103D30004820FFF7ABF801231A4620215820FFF74F
:103D4000A5F8BDE81040FFF733B80000FDF74CFCC4
:103D5000FFF710FA0220FEF7FBFC0120FEF7F8FC4B
:103D60004FF47A742046FDF767FA2046FDF764FAAF
:103D7000FEF7E6FDFEF7A6FEFEF7F4FEFEF730FFC7
:103D8000FEF79AFDFEF764FEFEF79CFF0125054C49
:103D9000FCF71CFEFFF74EFB257020780028FCD1B5
:103DA000F6E700002D000020002800DA40427047AE
:103DB0000246012000E05043491EC9B2FBD27047C1
:103DC000F8B50021CBA20846FFF70AF9CB4D2868C9
:103DD000FCF713FC02460C24032300212820009446
:103DE000FFF7C2F8C6A200213920FFF7F9F8C54F46
:103DF00028683946FCF710FAFCF7E6FB0A2590FB29
:103E0000F5F105FB1102012300213D200094FFF78D
:103E1000ABF8BDA200215F20FFF7E2F8BB480068C5
:103E2000FCF7EBFB0246022300216C200094FFF715
:103E30009BF8B7A20A210020FFF7D2F8B64E3068EF
:103E4000FCF7DBFB024603230A2128200094FFF73E
:103E50008BF8ABA20A213920FFF7C2F83946306847
:103E6000FCF7DAF9FCF7B0FB90FBF5F105FB11026A
:103E700001230A213D200094FFF776F8A2A20A212F
:103E80005F20FFF7ADF8A5480068FCF7B6FB0246D7
:103E900002230A216C200094FFF766F8A0A21421E7
:103EA0000020FFF79DF8A04E3068FCF7A6FB024605
:103EB0000323142128200094FFF756F890A2142120
:103EC0003920FFF78DF839463068FCF7A5F9FCF783
:103ED0007BFB90FBF5F105FB1102012314213D2032
:103EE0000094FFF741F888A214215F20FFF778F8CB
:103EF0008E480068FCF781FB0246022314216C20E7
:103F00000094FFF731F88AA21E210020FFF768F81D
:103F1000894E3068FCF771FB024603231E212820DE
:103F20000094FFF721F876A21E213920FFF758F8F8
:103F300039463068FCF770F9FCF746FB90FBF5F169
:103F400005FB110201231E213D200094FFF70CF810
:103F50006DA21E215F20FFF743F878480068FCF748
:103F60004CFB024602231E216C200094FEF7FCFF4E
:103F7000734801250068B0F17E5F17D0B0F1804F23
:103F80001FD07049884235D10C234E2200214B208E
:103F90000095FEF733FF0C234E220A214B2000959B
:103FA000FEF72CFF0C23592200951BE00C2359220D
:103FB00000214B200095FEF721FF0C234E22009597
:103FC00009E00C234E2200214B200095FEF716FF3E
:103FD0000C23592200950A214B20FEF70FFF0C23DA
:103FE0004E22009514214B20FEF708FF0C234E2291
:103FF00000951AE0B0F1814F1BD10C234E22002115
:104000004B200095FEF7FAFE0C234E220A214B208E
:104010000095FEF7F3FE0C234E2214214B20009551
:10402000FEF7ECFE0C23592200951E214B20FEF7D3
:10403000E5FE45A228215020FEF7D2FF4348009418
:104040000523026828215F20FEF78EFF40A2282169
:104050000020FEF7C5FF2AA228212920FEF7C0FF75
:104060003DA228213F20FEF7BBFF3C4D64260223E2
:104070002868282190FBF6F21C200094FEF774FFBC
:104080002868022390FBF6F106FB11022821332059
:104090000094FEF769FF286890FBF6F106FB11001B
:1040A0000A2806DA0223002228212D200094FEF798
:1040B0005BFF2BA232215020FEF792FF294800948B
:1040C0000523026832215F20FEF74EFF26A232212F
:1040D0000020FEF785FF26480068FCF78EFA0246AE
:1040E000042332211E200094FEF73EFFBDE8F84075
:1040F000FEF75EBE422D4B5000000000080000207D
:104100002E00000000002041413A00001C00002069
:10411000422D4B44000000000C0000202000002035
:10412000502D4B5000000000100000202400002003
:10413000502D4B44000000001400002028000020F7
:104140001800002000004040543A00000400002005
:10415000564F4C3A00000000560000003800002086
:10416000503A0000300000204144433A0000000073
:104170003C00002010B5FCF709FA044A044BFCF798
:104180006EF9BDE81040FCF77EBA000018F2632714
:1041900017BE193F10B50022012311461C20FEF75F
:1041A000ABFE01231A4600212A20FEF7A5FE0123BB
:1041B000022200213820FEF79FFE01230322002166
:1041C0004620FEF799FE0123042200215420FEF729
:1041D00093FE0123052200216220FEF78DFE0123BC
:1041E000062200217020FEF787FE012307221021FE
:1041F0000020FEF781FE0123082210210E20FEF789
:104200007BFE0123092210211C20FEF775FE0123ED
:104210000A2210212A20FEF76FFE01230B22102113
:104220003820FEF769FE01230C2210214620FEF7FC
:1042300063FE01230D2210215420FEF75DFE0123B1
:104240000E2210216220FEF757FE01230F221021BB
:104250007020FEF751FE0123102220210020FEF7DE
:104260004BFE0123112220210E20FEF745FE0123E3
:10427000122220211C20FEF73FFE012313222021C1
:104280002A20FEF739FE0123142220213820FEF7D0
:1042900033FE0123152220214620FEF72DFE0123A7
:1042A000162220215420FEF727FE01231722202169
:1042B0006220FEF721FE0123182220217020FEF744
:1042C0001BFE0123192230210020FEF715FE0123D9
:1042D0001A2230210E20FEF70FFE01231B2230216F
:1042E0001C20FEF709FE01231C2230212A20FEF7A4
:1042F00003FE01231C2230212E20FEF7FDFD0123A9
:104300001C2230213220FEF7F7FDBDE81040FEF7F9
:104310004FBD10B5002101230C220846FEF7ECFD2D
:1043200001231D2200210E20FEF7E6FD01231E229F
:1043300000211C20FEF7E0FD01231F2200212A207E
:10434000FEF7DAFD0123202200213820FEF7D4FDFC
:104350000123212200214620FEF7CEFD0123222247
:1043600000215420FEF7C8FD01230B22002162200A
:10437000FEF7C2FD0123232200217020FEF7BCFDC1
:104380000123242210210020FEF7B6FD012325225F
:1043900010210E20FEF7B0FD0123262210211C2043
:1043A000FEF7AAFD0123272210212A20FEF7A4FDF3
:1043B0000123282210213820FEF79EFD0123292207
:1043C00010214620FEF798FD01232A2210215420B7
:1043D000FEF792FD01232B2210216220FEF78CFDB7
:1043E00001232C2210217020FEF786FD01232D22AF
:1043F00020210020FEF780FD01232E2220210E2007
:10440000FEF77AFD0123132220211C20FEF774FD04
:1044100001232F2220212A20FEF76EFD01233022C6
:1044200020213820FEF768FD01233122202146207B
:10443000FEF762FD0123322220215420FEF75CFDAD
:104440000123332220216220FEF756FD012318228A
:1044500020217020FEF750FD012329223021002069
:10446000FEF74AFD0123342230210E20FEF744FDE1
:104470000123352230211C20FEF73EFD01231822A6
:1044800030212A20FEF738FD01231922302138205F
:10449000FEF732FD0123362230214620FEF72CFDA7
:1044A0000123372230215420FEF726FD01231C2250
:1044B00030216220FEF720FD01231C2230216620DE
:1044C000FEF71AFD01231C2230216A20FEF714FD9D
:1044D000BDE81040FEF76CBC10B50021012342225C
:1044E0000846FEF709FD0123432200210E20FEF7B6
:1044F00003FD0123442200211C20FEF7FDFC0123C3
:10450000242200212A20FEF7F7FC01232522002186
:104510003820FEF7F1FC0123452200214620FEF75A
:10452000EBFC0123022200215420FEF7E5FC0123CD
:10453000032200216220FEF7DFFC01230422002178
:104540007020FEF7D9FC0123462210210020FEF73F
:10455000D3FC0123472210210E20FEF7CDFC0123BE
:10456000482210211C20FEF7C7FC012349221021FC
:104570002A20FEF7C1FC01234A2210213820FEF731
:10458000BBFC01234B2210214620FEF7B5FC012382
:104590004C2210215420FEF7AFFC01234D221021A4
:1045A0006220FEF7A9FC01234E2210217020FEF7A5
:1045B000A3FC01234F2220210020FEF79DFC0123B4
:1045C000502220210E20FEF797FC01230B222021F0
:1045D0001C20FEF791FC0123512220212A20FEF706
:1045E0008BFC0123332220213820FEF785FC012398
:1045F0003C2220214620FEF77FFC01233D22202182
:104600005420FEF779FC0123522220216220FEF77C
:1046100073FC0123532220217020FEF76DFC01233F
:10462000542230210020FEF767FC0123552230215F
:104630000E20FEF761FC01234D2230211C20FEF7E5
:104640005BFC01234E2230212A20FEF755FC01237A
:10465000562230213820FEF74FFC0123572230210B
:104660004620FEF749FC01234C2230215420FEF75E
:1046700043FC0123582230216220FEF73DFC012338
:10468000592230217020FEF737FCBDE81040FEF7BC
:104690008FBB10B50021012323220846FEF72CFC16
:1046A00001235A2200210E20FEF726FC012324229A
:1046B00000211C20FEF720FC0123252200212A20B6
:1046C000FEF71AFC0123262200213820FEF714FCF5
:1046D0000123272200214620FEF70EFC0123282279
:1046E00000215420FEF708FC01232922002162202A
:1046F000FEF702FC01235B2200217020FEF7FCFB89
:1047000001235C2210210020FEF7F6FB01235D222D
:1047100010210920FEF7F0FB01235E221021122058
:10472000FEF7EAFB01234C2210211B20FEF7E4FBDD
:1047300001235F2210212920FEF7DEFB012339220D
:1047400010213720FEF7D8FB0123602210214520DD
:10475000FEF7D2FB0123612210214E20FEF7CCFB95
:104760000123602210215720FEF7C6FB012361229E
:1047700010216020FEF7C0FB012363221021692075
:10478000FEF7BAFB0123602220210020FEF7B4FBD4
:104790000123612220210920FEF7AEFB01236222C2
:1047A00020211220FEF7A8FB0123612220211B20DB
:1047B000FEF7A2FB0123642220212420FEF79CFBAC
:1047C0000123572220213220FEF796FB01230B22E2
:1047D00020214020FEF790FB0123512220214E2072
:1047E000FEF78AFB0123332220215C20FEF784FBA5
:1047F00001234F2220216A20FEF77EFB0123652240
:1048000030210020FEF778FB0123492230210E20C1
:10481000FEF772FB01234A2230211C20FEF76CFBBD
:1048200001234B2230212A20FEF766FB01234C2274
:1048300030213820FEF760FB01234D223021462035
:10484000FEF75AFB01234E2230215420FEF754FB81
:104850000123132230216220FEF74EFB01233C226C
:1048600030217020FEF748FBBDE81040FEF7A0BAEB
:1048700038B5002101233D220846FEF73DFB012308
:10488000312200210E20FEF737FB01236622002192
:104890001C20FEF731FB0123332200212A20FEF7E2
:1048A0002BFB0123142200213820FEF725FB0123D6
:1048B000152200214620FEF71FFB012316220021AE
:1048C0005420FEF719FB0123172200216220FEF776
:1048D00013FB0123182200217020FEF70DFB01239A
:1048E000192210210020FEF707FB01236722102167
:1048F0000E20FEF701FB0123682210211C20FEF789
:10490000FBFA0123072210212A20FEF7F5FA0123E2
:10491000082210213820FEF7EFFA01231C22102173
:104920004620FEF7E9FA01231C2210214A20FEF757
:10493000E3FA01231C2210214E20FEF7DDFA0124A8
:1049400010234122282118200094FEF757FA102343
:104950004422282120200094FEF750FA2821102319
:10496000432208460094FEF749FA08480068FBF71E
:1049700044FE024610200090042328214E20FEF71A
:10498000F3FABDE83840FEF713BA00003C000020FF
:1049900010B50123002204212020FEF777FA01231D
:1049A0001A4604213020FEF771FA01230222042165
:1049B0004020FEF76BFA0123032204215020FEF76A
:1049C00065FA1821012304220846FEF75FFA012345
:1049D000052218212820FEF759FA01230622182162
:1049E0003820FEF753FA0123072218214820FEF74A
:1049F0004DFA0123082218215820FEF747FA012317
:104A0000092218216820FEF741FA01230A222C21ED
:104A10000020FEF73BFA01230B222C211020FEF789
:104A200035FA01230C222C212020FEF72FFA012336
:104A30000D222C213020FEF729FABDE81040FEF7A8
:104A4000B7B90000000000000000010203040607DF
:104A5000080900000000010203040000000000003B
:104A60000000000000000000000000003F400000C7
:104A70000000000000003000400030004000000056
:104A800009000BC03D000BC03D00090018C02440C8
:104A90007FE0224031800000180024C01B000D8000
:104AA0003240018003801C4027401C8007400040AA
:104AB0001000600000000000000000000000000086
:104AC00000001F80204040200000402020401F8028
:104AD00000000000090006001F8006000900000019
:104AE000040004003F800400040000000010006087
:104AF00000000000000000000400040004000400A6
:104B00000400000000000040000000000000000061
:104B1000002001C006003800400000001F80204037
:104B2000204020401F800000000010403FC0004097
:104B30000000000018C0214022402440184000001E
:104B400010802040244024401B80000002000D0003
:104B500011003FC0014000003C802440244024401C
:104B6000238000001F802440244034400380000044
:104B70003000200027C03800200000001B802440A7
:104B8000244024401B8000001C0022C02240224000
:104B90001F8000000000000008400000000000002E
:104BA000000000000460000000000000000004009D
:104BB0000A00110020804040090009000900090096
:104BC0000900000000004040208011000A0004009D
:104BD0001800200023402400180000001F802040FF
:104BE000274029401F400000004007C039000F0047
:104BF00001C0004020403FC0244024401B800000F2
:104C00001F802040204020403080000020403FC0D6
:104C1000204020401F80000020403FC024402E4004
:104C200030C0000020403FC024402E003000000073
:104C30000F001080204022403380020020403FC0FF
:104C4000040004003FC02040204020403FC02040DE
:104C5000204000000060202020203FC020002000D5
:104C600020403FC024400B0030C0204020403FC0C7
:104C700020400040004000C03FC03C0003C03C005A
:104C80003FC0000020403FC00C4023003FC0200038
:104C90001F802040204020401F80000020403FC057
:104CA00024402400180000001F802140214020E003
:104CB0001FA0000020403FC02440260019C0004033
:104CC00018C02440244022403180000030002040A1
:104CD0003FC020403000000020003F8000400040E6
:104CE0003F80200020003E0001C007003800200067
:104CF000380007C03C0007C038000000204039C021
:104D0000060039C0204000002000384007C038406D
:104D100020000000304021C02640384020C0000064
:104D2000000000007FE040204020000000007000F4
:104D30000C000380004000000000402040207FE085
:104D400000000000000020004000200000000000E3
:104D500000100010001000100010001000000000F3
:104D600040000000000000000000028005400540F7
:104D700003C0004020003FC0044004400380000006
:104D8000000003800440044006400000000003804F
:104D9000044024403FC0004000000380054005401F
:104DA00003400000000004401FC0244024402000B5
:104DB000000002E0055005500650042020403FC08E
:104DC0000440040003C000400000044027C000402D
:104DD0000000000000100010041027E00000000098
:104DE00020403FC00140070004C004402040204054
:104DF0003FC000400040000007C0040007C004009E
:104E000003C00000044007C00440040003C0004089
:104E1000000003800440044003800000041007F0F9
:104E2000045004400380000000000380044004504C
:104E300007F00010044007C0024004000400000016
:104E4000000006400540054004C0000000000400CA
:104E50001F80044000400000040007800040044020
:104E600007C000400400070004C0018006000400E1
:104E7000060001C0070001C006000000044006C093
:104E8000010006C0044000000410071004E0018087
:104E9000060004000000044005C006400440000075
:104EA0000000000004007BE0402000000000000043
:104EB0000000FFF000000000000040207BE0040044
:104EC0000000000040008000400020002000400062
:104ED00000000000000000000000000000000000D2
:104EE0000000000000001FCC000C000000000000CB
:104EF0000000080030006000080030006000000082
:104F0000022003FC1E20022003FC1E2002200000C1
:104F100000000E1811043FFF10840C780000000000
:104F20000F0010840F3800C0077818840078000044
:104F300000780F8410C411240E9800E40084000847
:104F40000800680070000000000000000000000081
:104F500000000000000007E01818200440020000D4
:104F6000000040022004181807E0000000000000C4
:104F70000240024001800FF0018002400240000028
:104F80000080008000800FF800800080008000001A
:104F90000001000D000E00000000000000000000F5
:104FA0000000008000800080008000800080008081
:104FB0000000000C000C00000000000000000000D9
:104FC00000000006001800600180060018002000A4
:104FD000000007F0080810041004080807F000009B
:104FE0000000080408041FFC000400040000000086
:104FF00000000E0C10141024104411840E0C00003C
:1050000000000C1810041104110412880C70000028
:10501000000000E00320042408241FFC00240000FA
:1050200000001F98108411041104108810700000F3
:10503000000007F0088811041104188800700000AF
:1050400000001C00100010FC13001C0010000000E9
:1050500000000E3811441084108411440E380000F2
:1050600000000700088C10441044088807F0000076
:10507000000000000000030C030C00000000000012
:105080000000000000010106000000000000000018
:1050900000000080014002200410080810040000F5
:1050A0000220022002200220022002200220000012
:1050B00000001004080804100220014000800000D5
:1050C00000000E001200100C106C10800F00000089
:1050D00003E00C1813E4142417C4082807D00000B8
:1050E0000004003C03C41C40074000E4001C000412
:1050F00010041FFC1104110411040E88007000003C
:1051000003E00C1810041004100410081C10000018
:1051100010041FFC100410041004080807F000001D
:1051200010041FFC1104110417C410040818000017
:1051300010041FFC1104110017C01000080000002B
:1051400003E00C181004100410441C780040000008
:1051500010041FFC10840080008010841FFC1004C9
:105160000000100410041FFC1004100400000000D4
:1051700000030001100110011FFE100010000000CC
:1051800010041FFC110403801464181C1004000098
:1051900010041FFC1004000400040004000C0000B4
:1051A00010041FFC1F0000FC1F001FFC1004000067
:1051B00010041FFC0C04030000E010181FFC10007A
:1051C00007F00808100410041004080807F0000095
:1051D00010041FFC10841080108010800F0000004D
:1051E00007F0081810241024101C080A07F2000009
:1051F00010041FFC1104110011C011300E0C00042A
:1052000000000E1C11041084108410441C3800008F
:105210001800100010041FFC1004100018000000FB
:1052200010001FF810040004000410041FF8100000
:1052300010001E0011E0001C007013801C00100004
:105240001FC0103C00E01F0000E0103C1FC0000029
:105250001004180C163401C001C01634180C1004C8
:1052600010001C00130400FC13041C0010000000BC
:105270000804101C1064108413041C04101800008F
:105280000000000000007FFE4002400240020000DB
:10529000000030000C0003800060001C00030000D0
:1052A00000004002400240027FFE000000000000BB
:1052B00000000000200040004000400020000000EE
:1052C00000010001000100010001000100010001D6
:1052D000000040004000200000000000000000002E
:1052E00000000098012401440144014400FC000432
:1052F00010001FFC008801040104008800700000F9
:10530000000000700088010401040104008800000E
:105310000000007000880104010411081FFC000453
:10532000000000F8014401440144014400C80000A9
:105330000000010401040FFC110411041100180005
:10534000000000D601290129012901C90106000038
:1053500010041FFC008401000100010400FC000493
:1053600000000104190419FC0004000400000000FE
:105370000000000300010101190119FE00000000F6
:1053800010041FFC0024004001B4010C01040000C3
:105390000000100410041FFC0004000400000000C2
:1053A000010401FC0104010001FC0104010000FCF6
:1053B000010401FC008401000100010400FC000460
:1053C000000000F8010401040104010400F80000D9
:1053D000010101FF00850104010400880070000044
:1053E00000000070008801040104010501FF0001B4
:1053F0000104010401FC008401040100018000009B
:10540000000000CC012401240124012401980000A3
:1054100000000100010007F8010401040000000081
:10542000010001F8000400040004010801FC00046C
:10543000010001800170000C00100160018001007A
:1054400001F0010C003001C00030010C01F001003E
:1054500000000104018C00740170018C0104000043
:10546000010101810171000E00180160018001003D
:1054700000000184010C013401440184010C00008E
:10548000000000000000000001003EFC400240025D
:105490000000000000000000FFFF0000000000000E
:1054A0000000400240023EFC01000000000000003D
:1054B00000006000800080004000400020002000CC
:1054C0000200000000000000420000000000000098
:1054D00033000000FC000000000000000800000095
:1054E00000000000110000007F000000FE0000002E
:1054F00041000000000000004900000078000000AA
:1055000049000000480000007F0000004800000043
:105510004900000048000000490000007A00000037
:1055200041000000010000007F000000FE000000BC
:10553000000000000000000000000000000000006B
:105540002000000000000000220000000000000019
:105550002200000000000000220000000000000007
:10556000FA0000000000000022000000000000001F
:1055700023000000FF0000002200000000000000E7
:1055800022000000000000002200000010000000C7
:10559000FA000000080000002200000010000000D7
:1055A00023000000E00000002000000000000000D8
:1055B00020000000000000000000000000000000CB
:1055C00000000000010000000000000006000000D4
:1055D0001F000000F80000001100000000000000A3
:1055E000110000000800000011000000040000008D
:1055F00011000000F8000000100000000100000091
:105600001000000002000000FF0000008400000005
:10561000100000006800000090000000180000006A
:105620005000000064000000130000008200000031
:10563000100000001F00000000000000000000003B
:105640001000000008000000100000000C00000026
:1056500010000000080000001F000000F80000001B
:1056600010000000100000001000000011000000F9
:105670001000000012000000080000000C000000F4
:105680000800000070000000FF0000008000000023
:1056900008000000020000000800000001000000F7
:1056A00008000000020000000F000000FC000000E5
:1056B00000000000000000000000000000000000EA
:1056C0000800000040000000080000004200000048
:1056D0000800000081000000FF000000FE00000044
:1056E00009000000000000000400000000000000AD
:1056F000190000000100000011000000210000005E
:1057000011000000D200000097000000140000000B
:1057100071000000080000001100000014000000EB
:1057200011000000E2000000150000000100000070
:105730001900000000000000000000000000000050
:1057400040000000000000004000000000000000D9
:1057500040000000000000004000000000000000C9
:1057600040000000000000004000000000000000B9
:105770007F000000FF00000040000000000000006B
:105780004000000000000000420000000000000097
:105790004100000000000000400000008000000008
:1057A0004000000060000000400000000000000019
:1057B00040000000000000000000000000000000A9
:1057C00000000000010000000000000006000000D2
:1057D0007F000000F80000004400000040000000CE
:1057E00044000000400000004400000040000000B1
:1057F00044000000400000007F000000FE000000A8
:105800004400000040000000440000004000000090
:10581000440000004200000044000000410000007D
:105820007F000000FE0000000000000000000000FB
:105830000000000000000000000000000000000068
:105840000000000000000000000000000100000057
:1058500000000000060000001F000000F80000002B
:105860001000000080000000100000008000000018
:105870009000000080000000700000008000000028
:1058800010000000800000001000000080000000F8
:1058900010000000800000001000000080000000E8
:1058A0001F000000C0000000000000000000000019
:1058B00000000000000000000000000000000000E8
:1058C0000800000040000000080000004200000046
:1058D0000800000081000000FF000000FE00000042
:1058E00009000000000000000400000000000000AB
:1058F000190000000100000011000000210000005C
:1059000011000000D2000000970000001400000009
:1059100071000000080000001100000014000000E9
:1059200011000000E200000015000000010000006E
:10593000190000000000000000000000000000004E
:1059400002000000800000000C0000008000000049
:10595000F7000000FE0000002400000084000000AA
:10596000240000008A000000010000006400000024
:10597000270000001800000039000000E4000000CB
:1059800008000000220000002A000000A200000021
:105990002A000000A2000000FF000000FA00000042
:1059A0002A000000A20000003E000000A20000004B
:1059B00008000000220000000000000000000000BD
:1059C00002000000000000000200000002000000D1
:1059D000420000000400000033000000F800000056
:1059E00000000000040000000100000002000000B0
:1059F000110000000A000000110000003200000049
:105A0000FF000000C20000001100000002000000C2
:105A10001100000002000000FF000000FA0000007A
:105A20001100000002000000110000000200000050
:105A30000100000002000000000000000000000063
:105A40000000000001000000000000000200000053
:105A5000000000000400000000000000080000003A
:105A6000000000003000000080000000C0000000C6
:105A700047000000000000003800000000000000A7
:105A8000070000000000000000000000C00000004F
:105A90000000000030000000000000000C000000CA
:105AA00000000000020000000000000001000000F3
:105AB00000000000010000000000000000000000E5
:105AC0000000000000000000000000004200000094
:105AD00044000000440000004C000000C80000002A
